{
  "contractName": "OfficialStore",
  "abi": [
    {
      "inputs": [],
      "stateMutability": "nonpayable",
      "type": "constructor"
    },
    {
      "inputs": [],
      "name": "CompanyInactive",
      "type": "error"
    },
    {
      "inputs": [],
      "name": "CompanyNotOfficialStore",
      "type": "error"
    },
    {
      "inputs": [],
      "name": "ContractAlreadyActive",
      "type": "error"
    },
    {
      "inputs": [],
      "name": "ContractAlreadyCreate",
      "type": "error"
    },
    {
      "inputs": [],
      "name": "ContractAlreadyHaveBrandName",
      "type": "error"
    },
    {
      "inputs": [],
      "name": "ContractAlreadyInactive",
      "type": "error"
    },
    {
      "inputs": [],
      "name": "ContractDoesntHaveBrandName",
      "type": "error"
    },
    {
      "inputs": [],
      "name": "ContractNoExist",
      "type": "error"
    },
    {
      "anonymous": false,
      "inputs": [
        {
          "indexed": true,
          "internalType": "address",
          "name": "owner",
          "type": "address"
        },
        {
          "indexed": true,
          "internalType": "address",
          "name": "approved",
          "type": "address"
        },
        {
          "indexed": true,
          "internalType": "uint256",
          "name": "tokenId",
          "type": "uint256"
        }
      ],
      "name": "Approval",
      "type": "event"
    },
    {
      "anonymous": false,
      "inputs": [
        {
          "indexed": true,
          "internalType": "address",
          "name": "owner",
          "type": "address"
        },
        {
          "indexed": true,
          "internalType": "address",
          "name": "operator",
          "type": "address"
        },
        {
          "indexed": false,
          "internalType": "bool",
          "name": "approved",
          "type": "bool"
        }
      ],
      "name": "ApprovalForAll",
      "type": "event"
    },
    {
      "anonymous": false,
      "inputs": [
        {
          "indexed": true,
          "internalType": "address",
          "name": "_from",
          "type": "address"
        },
        {
          "indexed": false,
          "internalType": "bytes32",
          "name": "_value",
          "type": "bytes32"
        }
      ],
      "name": "BrandAddress",
      "type": "event"
    },
    {
      "anonymous": false,
      "inputs": [
        {
          "indexed": true,
          "internalType": "address",
          "name": "_from",
          "type": "address"
        },
        {
          "components": [
            {
              "internalType": "bytes32",
              "name": "name",
              "type": "bytes32"
            },
            {
              "internalType": "bytes32",
              "name": "district",
              "type": "bytes32"
            },
            {
              "internalType": "uint48",
              "name": "expiredDate",
              "type": "uint48"
            },
            {
              "internalType": "address",
              "name": "mainBrandAddress",
              "type": "address"
            },
            {
              "internalType": "bool",
              "name": "active",
              "type": "bool"
            }
          ],
          "indexed": true,
          "internalType": "struct OfficialStore.ContractBrand",
          "name": "_contractBrand",
          "type": "tuple"
        }
      ],
      "name": "BrandContract",
      "type": "event"
    },
    {
      "anonymous": false,
      "inputs": [
        {
          "indexed": true,
          "internalType": "address",
          "name": "previousOwner",
          "type": "address"
        },
        {
          "indexed": true,
          "internalType": "address",
          "name": "newOwner",
          "type": "address"
        }
      ],
      "name": "OwnershipTransferred",
      "type": "event"
    },
    {
      "anonymous": false,
      "inputs": [
        {
          "indexed": true,
          "internalType": "address",
          "name": "from",
          "type": "address"
        },
        {
          "indexed": true,
          "internalType": "address",
          "name": "to",
          "type": "address"
        },
        {
          "indexed": true,
          "internalType": "uint256",
          "name": "tokenId",
          "type": "uint256"
        }
      ],
      "name": "Transfer",
      "type": "event"
    },
    {
      "inputs": [
        {
          "internalType": "address",
          "name": "to",
          "type": "address"
        },
        {
          "internalType": "uint256",
          "name": "tokenId",
          "type": "uint256"
        }
      ],
      "name": "approve",
      "outputs": [],
      "stateMutability": "nonpayable",
      "type": "function"
    },
    {
      "inputs": [
        {
          "internalType": "address",
          "name": "owner",
          "type": "address"
        }
      ],
      "name": "balanceOf",
      "outputs": [
        {
          "internalType": "uint256",
          "name": "",
          "type": "uint256"
        }
      ],
      "stateMutability": "view",
      "type": "function"
    },
    {
      "inputs": [
        {
          "internalType": "uint256",
          "name": "tokenId",
          "type": "uint256"
        }
      ],
      "name": "getApproved",
      "outputs": [
        {
          "internalType": "address",
          "name": "",
          "type": "address"
        }
      ],
      "stateMutability": "view",
      "type": "function"
    },
    {
      "inputs": [
        {
          "internalType": "address",
          "name": "owner",
          "type": "address"
        },
        {
          "internalType": "address",
          "name": "operator",
          "type": "address"
        }
      ],
      "name": "isApprovedForAll",
      "outputs": [
        {
          "internalType": "bool",
          "name": "",
          "type": "bool"
        }
      ],
      "stateMutability": "view",
      "type": "function"
    },
    {
      "inputs": [],
      "name": "name",
      "outputs": [
        {
          "internalType": "string",
          "name": "",
          "type": "string"
        }
      ],
      "stateMutability": "view",
      "type": "function"
    },
    {
      "inputs": [],
      "name": "owner",
      "outputs": [
        {
          "internalType": "address",
          "name": "",
          "type": "address"
        }
      ],
      "stateMutability": "view",
      "type": "function"
    },
    {
      "inputs": [
        {
          "internalType": "uint256",
          "name": "tokenId",
          "type": "uint256"
        }
      ],
      "name": "ownerOf",
      "outputs": [
        {
          "internalType": "address",
          "name": "",
          "type": "address"
        }
      ],
      "stateMutability": "view",
      "type": "function"
    },
    {
      "inputs": [],
      "name": "renounceOwnership",
      "outputs": [],
      "stateMutability": "nonpayable",
      "type": "function"
    },
    {
      "inputs": [
        {
          "internalType": "address",
          "name": "from",
          "type": "address"
        },
        {
          "internalType": "address",
          "name": "to",
          "type": "address"
        },
        {
          "internalType": "uint256",
          "name": "tokenId",
          "type": "uint256"
        }
      ],
      "name": "safeTransferFrom",
      "outputs": [],
      "stateMutability": "nonpayable",
      "type": "function"
    },
    {
      "inputs": [
        {
          "internalType": "address",
          "name": "from",
          "type": "address"
        },
        {
          "internalType": "address",
          "name": "to",
          "type": "address"
        },
        {
          "internalType": "uint256",
          "name": "tokenId",
          "type": "uint256"
        },
        {
          "internalType": "bytes",
          "name": "data",
          "type": "bytes"
        }
      ],
      "name": "safeTransferFrom",
      "outputs": [],
      "stateMutability": "nonpayable",
      "type": "function"
    },
    {
      "inputs": [
        {
          "internalType": "address",
          "name": "operator",
          "type": "address"
        },
        {
          "internalType": "bool",
          "name": "approved",
          "type": "bool"
        }
      ],
      "name": "setApprovalForAll",
      "outputs": [],
      "stateMutability": "nonpayable",
      "type": "function"
    },
    {
      "inputs": [
        {
          "internalType": "bytes4",
          "name": "interfaceId",
          "type": "bytes4"
        }
      ],
      "name": "supportsInterface",
      "outputs": [
        {
          "internalType": "bool",
          "name": "",
          "type": "bool"
        }
      ],
      "stateMutability": "view",
      "type": "function"
    },
    {
      "inputs": [],
      "name": "symbol",
      "outputs": [
        {
          "internalType": "string",
          "name": "",
          "type": "string"
        }
      ],
      "stateMutability": "view",
      "type": "function"
    },
    {
      "inputs": [
        {
          "internalType": "uint256",
          "name": "tokenId",
          "type": "uint256"
        }
      ],
      "name": "tokenURI",
      "outputs": [
        {
          "internalType": "string",
          "name": "",
          "type": "string"
        }
      ],
      "stateMutability": "view",
      "type": "function"
    },
    {
      "inputs": [
        {
          "internalType": "address",
          "name": "from",
          "type": "address"
        },
        {
          "internalType": "address",
          "name": "to",
          "type": "address"
        },
        {
          "internalType": "uint256",
          "name": "tokenId",
          "type": "uint256"
        }
      ],
      "name": "transferFrom",
      "outputs": [],
      "stateMutability": "nonpayable",
      "type": "function"
    },
    {
      "inputs": [
        {
          "internalType": "address",
          "name": "newOwner",
          "type": "address"
        }
      ],
      "name": "transferOwnership",
      "outputs": [],
      "stateMutability": "nonpayable",
      "type": "function"
    },
    {
      "inputs": [
        {
          "internalType": "address",
          "name": "mainBrandAddress",
          "type": "address"
        },
        {
          "internalType": "bytes32",
          "name": "brandName",
          "type": "bytes32"
        }
      ],
      "name": "setBrandContract",
      "outputs": [],
      "stateMutability": "nonpayable",
      "type": "function"
    },
    {
      "inputs": [
        {
          "internalType": "address",
          "name": "contractAddress",
          "type": "address"
        },
        {
          "components": [
            {
              "internalType": "bytes32",
              "name": "name",
              "type": "bytes32"
            },
            {
              "internalType": "bytes32",
              "name": "district",
              "type": "bytes32"
            },
            {
              "internalType": "uint48",
              "name": "expiredDate",
              "type": "uint48"
            },
            {
              "internalType": "address",
              "name": "mainBrandAddress",
              "type": "address"
            },
            {
              "internalType": "bool",
              "name": "active",
              "type": "bool"
            }
          ],
          "internalType": "struct OfficialStore.ContractBrand",
          "name": "contractBrandInfo",
          "type": "tuple"
        }
      ],
      "name": "setContractOS",
      "outputs": [],
      "stateMutability": "nonpayable",
      "type": "function"
    },
    {
      "inputs": [
        {
          "internalType": "address",
          "name": "contractAddress",
          "type": "address"
        }
      ],
      "name": "enableContractOS",
      "outputs": [],
      "stateMutability": "nonpayable",
      "type": "function"
    },
    {
      "inputs": [
        {
          "internalType": "address",
          "name": "contractAddress",
          "type": "address"
        }
      ],
      "name": "disableContractOS",
      "outputs": [],
      "stateMutability": "nonpayable",
      "type": "function"
    },
    {
      "inputs": [
        {
          "internalType": "address",
          "name": "contractAddress",
          "type": "address"
        },
        {
          "internalType": "uint48",
          "name": "ts",
          "type": "uint48"
        }
      ],
      "name": "extendContractOS",
      "outputs": [],
      "stateMutability": "nonpayable",
      "type": "function"
    },
    {
      "inputs": [
        {
          "internalType": "address",
          "name": "brandAddress",
          "type": "address"
        }
      ],
      "name": "getBrandFromAddress",
      "outputs": [
        {
          "internalType": "bytes32",
          "name": "brandName",
          "type": "bytes32"
        }
      ],
      "stateMutability": "view",
      "type": "function"
    },
    {
      "inputs": [
        {
          "internalType": "address",
          "name": "contractAddress",
          "type": "address"
        }
      ],
      "name": "getContractBrandFromAddress",
      "outputs": [
        {
          "components": [
            {
              "internalType": "bytes32",
              "name": "name",
              "type": "bytes32"
            },
            {
              "internalType": "bytes32",
              "name": "district",
              "type": "bytes32"
            },
            {
              "internalType": "uint48",
              "name": "expiredDate",
              "type": "uint48"
            },
            {
              "internalType": "address",
              "name": "mainBrandAddress",
              "type": "address"
            },
            {
              "internalType": "bool",
              "name": "active",
              "type": "bool"
            }
          ],
          "internalType": "struct OfficialStore.ContractBrand",
          "name": "",
          "type": "tuple"
        }
      ],
      "stateMutability": "view",
      "type": "function"
    },
    {
      "inputs": [
        {
          "internalType": "address",
          "name": "contractAddress",
          "type": "address"
        },
        {
          "internalType": "bytes32",
          "name": "brandName",
          "type": "bytes32"
        },
        {
          "internalType": "uint256",
          "name": "unixTimeNow",
          "type": "uint256"
        }
      ],
      "name": "isContractBrandActive",
      "outputs": [
        {
          "internalType": "string",
          "name": "active",
          "type": "string"
        }
      ],
      "stateMutability": "view",
      "type": "function"
    }
  ],
  "bytecode": "0x60806040523480156200001157600080fd5b506040518060400160405280600d81526020017f4f6666696369616c53746f7265000000000000000000000000000000000000008152506040518060400160405280600381526020017f4f5354000000000000000000000000000000000000000000000000000000000081525081600090816200008f919062000412565b508060019081620000a1919062000412565b505050620000c4620000b8620000ca60201b60201c565b620000d260201b60201c565b620004f9565b600033905090565b6000600660009054906101000a900473ffffffffffffffffffffffffffffffffffffffff16905081600660006101000a81548173ffffffffffffffffffffffffffffffffffffffff021916908373ffffffffffffffffffffffffffffffffffffffff1602179055508173ffffffffffffffffffffffffffffffffffffffff168173ffffffffffffffffffffffffffffffffffffffff167f8be0079c531659141344cd1fd0a4f28419497f9722a3daafe3b4186f6b6457e060405160405180910390a35050565b600081519050919050565b7f4e487b7100000000000000000000000000000000000000000000000000000000600052604160045260246000fd5b7f4e487b7100000000000000000000000000000000000000000000000000000000600052602260045260246000fd5b600060028204905060018216806200021a57607f821691505b60208210810362000230576200022f620001d2565b5b50919050565b60008190508160005260206000209050919050565b60006020601f8301049050919050565b600082821b905092915050565b6000600883026200029a7fffffffffffffffffffffffffffffffffffffffffffffffffffffffffffffffff826200025b565b620002a686836200025b565b95508019841693508086168417925050509392505050565b6000819050919050565b6000819050919050565b6000620002f3620002ed620002e784620002be565b620002c8565b620002be565b9050919050565b6000819050919050565b6200030f83620002d2565b620003276200031e82620002fa565b84845462000268565b825550505050565b600090565b6200033e6200032f565b6200034b81848462000304565b505050565b5b8181101562000373576200036760008262000334565b60018101905062000351565b5050565b601f821115620003c2576200038c8162000236565b62000397846200024b565b81016020851015620003a7578190505b620003bf620003b6856200024b565b83018262000350565b50505b505050565b600082821c905092915050565b6000620003e760001984600802620003c7565b1980831691505092915050565b6000620004028383620003d4565b9150826002028217905092915050565b6200041d8262000198565b67ffffffffffffffff811115620004395762000438620001a3565b5b62000445825462000201565b6200045282828562000377565b600060209050601f8311600181146200048a576000841562000475578287015190505b620004818582620003f4565b865550620004f1565b601f1984166200049a8662000236565b60005b82811015620004c4578489015182556001820191506020850194506020810190506200049d565b86831015620004e45784890151620004e0601f891682620003d4565b8355505b6001600288020188555050505b505050505050565b6137cd80620005096000396000f3fe608060405234801561001057600080fd5b50600436106101585760003560e01c80638da5cb5b116100c3578063c87b56dd1161007c578063c87b56dd146103c1578063d1527da1146103f1578063e4d8ce771461040d578063e985e9c514610429578063f2fde38b14610459578063ff4312891461047557610158565b80638da5cb5b1461030157806395d89b411461031f5780639d4a64dc1461033d578063a22cb46514610359578063b88d4fde14610375578063c38168501461039157610158565b80633f0c23ac116101155780633f0c23ac1461022f57806342842e0e1461024b5780636352211e1461026757806370a0823114610297578063715018a6146102c75780637c0b5664146102d157610158565b806301ffc9a71461015d57806306fdde031461018d578063081812fc146101ab578063095ea7b3146101db57806323b872dd146101f757806332e7375314610213575b600080fd5b61017760048036038101906101729190612518565b6104a5565b6040516101849190612560565b60405180910390f35b610195610587565b6040516101a2919061260b565b60405180910390f35b6101c560048036038101906101c09190612663565b610619565b6040516101d291906126d1565b60405180910390f35b6101f560048036038101906101f09190612718565b61065f565b005b610211600480360381019061020c9190612758565b610776565b005b61022d600480360381019061022891906127e1565b6107d6565b005b6102496004803603810190610244919061285f565b6108f8565b005b61026560048036038101906102609190612758565b610a10565b005b610281600480360381019061027c9190612663565b610a30565b60405161028e91906126d1565b60405180910390f35b6102b160048036038101906102ac919061289f565b610ae1565b6040516102be91906128db565b60405180910390f35b6102cf610b98565b005b6102eb60048036038101906102e6919061289f565b610bac565b6040516102f8919061299a565b60405180910390f35b610309610d5d565b60405161031691906126d1565b60405180910390f35b610327610d87565b604051610334919061260b565b60405180910390f35b61035760048036038101906103529190612aed565b610e19565b005b610373600480360381019061036e9190612b2d565b61100f565b005b61038f600480360381019061038a9190612c27565b611025565b005b6103ab60048036038101906103a6919061289f565b611087565b6040516103b89190612cb9565b60405180910390f35b6103db60048036038101906103d69190612663565b611152565b6040516103e8919061260b565b60405180910390f35b61040b6004803603810190610406919061289f565b6111ba565b005b6104276004803603810190610422919061289f565b61135a565b005b610443600480360381019061043e9190612cd4565b6114fa565b6040516104509190612560565b60405180910390f35b610473600480360381019061046e919061289f565b61158e565b005b61048f600480360381019061048a9190612d14565b611611565b60405161049c919061260b565b60405180910390f35b60007f80ac58cd000000000000000000000000000000000000000000000000000000007bffffffffffffffffffffffffffffffffffffffffffffffffffffffff1916827bffffffffffffffffffffffffffffffffffffffffffffffffffffffff1916148061057057507f5b5e139f000000000000000000000000000000000000000000000000000000007bffffffffffffffffffffffffffffffffffffffffffffffffffffffff1916827bffffffffffffffffffffffffffffffffffffffffffffffffffffffff1916145b80610580575061057f826118fb565b5b9050919050565b60606000805461059690612d96565b80601f01602080910402602001604051908101604052809291908181526020018280546105c290612d96565b801561060f5780601f106105e45761010080835404028352916020019161060f565b820191906000526020600020905b8154815290600101906020018083116105f257829003601f168201915b5050505050905090565b600061062482611965565b6004600083815260200190815260200160002060009054906101000a900473ffffffffffffffffffffffffffffffffffffffff169050919050565b600061066a82610a30565b90508073ffffffffffffffffffffffffffffffffffffffff168373ffffffffffffffffffffffffffffffffffffffff16036106da576040517f08c379a00000000000000000000000000000000000000000000000000000000081526004016106d190612e39565b60405180910390fd5b8073ffffffffffffffffffffffffffffffffffffffff166106f96119b0565b73ffffffffffffffffffffffffffffffffffffffff1614806107285750610727816107226119b0565b6114fa565b5b610767576040517f08c379a000000000000000000000000000000000000000000000000000000000815260040161075e90612ecb565b60405180910390fd5b61077183836119b8565b505050565b6107876107816119b0565b82611a71565b6107c6576040517f08c379a00000000000000000000000000000000000000000000000000000000081526004016107bd90612f5d565b60405180910390fd5b6107d1838383611b06565b505050565b6107de611d6c565b6000600760008473ffffffffffffffffffffffffffffffffffffffff1673ffffffffffffffffffffffffffffffffffffffff1681526020019081526020016000205490506000602060ff161115610861576040517f75ed69d000000000000000000000000000000000000000000000000000000000815260040160405180910390fd5b81600760008573ffffffffffffffffffffffffffffffffffffffff1673ffffffffffffffffffffffffffffffffffffffff168152602001908152602001600020819055508273ffffffffffffffffffffffffffffffffffffffff167f3c53b0b232396578f0b8c4059cf1e1e49a0ac8d8280f32e901f449e34861caa5836040516108eb9190612cb9565b60405180910390a2505050565b610900611d6c565b6000600860008473ffffffffffffffffffffffffffffffffffffffff1673ffffffffffffffffffffffffffffffffffffffff16815260200190815260200160002060020160069054906101000a900473ffffffffffffffffffffffffffffffffffffffff16905061097081611dea565b6109a6576040517f0c656b6e00000000000000000000000000000000000000000000000000000000815260040160405180910390fd5b81600860008573ffffffffffffffffffffffffffffffffffffffff1673ffffffffffffffffffffffffffffffffffffffff16815260200190815260200160002060020160006101000a81548165ffffffffffff021916908365ffffffffffff160217905550505050565b610a2b83838360405180602001604052806000815250611025565b505050565b6000806002600084815260200190815260200160002060009054906101000a900473ffffffffffffffffffffffffffffffffffffffff169050600073ffffffffffffffffffffffffffffffffffffffff168173ffffffffffffffffffffffffffffffffffffffff1603610ad8576040517f08c379a0000000000000000000000000000000000000000000000000000000008152600401610acf90612fc9565b60405180910390fd5b80915050919050565b60008073ffffffffffffffffffffffffffffffffffffffff168273ffffffffffffffffffffffffffffffffffffffff1603610b51576040517f08c379a0000000000000000000000000000000000000000000000000000000008152600401610b489061305b565b60405180910390fd5b600360008373ffffffffffffffffffffffffffffffffffffffff1673ffffffffffffffffffffffffffffffffffffffff168152602001908152602001600020549050919050565b610ba0611d6c565b610baa6000611e32565b565b610bb4612457565b6000600860008473ffffffffffffffffffffffffffffffffffffffff1673ffffffffffffffffffffffffffffffffffffffff16815260200190815260200160002060020160069054906101000a900473ffffffffffffffffffffffffffffffffffffffff169050610c2481611dea565b610c5a576040517f0c656b6e00000000000000000000000000000000000000000000000000000000815260040160405180910390fd5b600860008473ffffffffffffffffffffffffffffffffffffffff1673ffffffffffffffffffffffffffffffffffffffff1681526020019081526020016000206040518060a001604052908160008201548152602001600182015481526020016002820160009054906101000a900465ffffffffffff1665ffffffffffff1665ffffffffffff1681526020016002820160069054906101000a900473ffffffffffffffffffffffffffffffffffffffff1673ffffffffffffffffffffffffffffffffffffffff1673ffffffffffffffffffffffffffffffffffffffff16815260200160028201601a9054906101000a900460ff161515151581525050915050919050565b6000600660009054906101000a900473ffffffffffffffffffffffffffffffffffffffff16905090565b606060018054610d9690612d96565b80601f0160208091040260200160405190810160405280929190818152602001828054610dc290612d96565b8015610e0f5780601f10610de457610100808354040283529160200191610e0f565b820191906000526020600020905b815481529060010190602001808311610df257829003601f168201915b5050505050905090565b610e21611d6c565b6000600860008473ffffffffffffffffffffffffffffffffffffffff1673ffffffffffffffffffffffffffffffffffffffff16815260200190815260200160002060020160069054906101000a900473ffffffffffffffffffffffffffffffffffffffff169050610e9181611dea565b15610ec8576040517f0d55c8d100000000000000000000000000000000000000000000000000000000815260040160405180910390fd5b81600860008573ffffffffffffffffffffffffffffffffffffffff1673ffffffffffffffffffffffffffffffffffffffff168152602001908152602001600020600082015181600001556020820151816001015560408201518160020160006101000a81548165ffffffffffff021916908365ffffffffffff16021790555060608201518160020160066101000a81548173ffffffffffffffffffffffffffffffffffffffff021916908373ffffffffffffffffffffffffffffffffffffffff160217905550608082015181600201601a6101000a81548160ff02191690831515021790555090505081604051610fbf919061317a565b60405180910390208373ffffffffffffffffffffffffffffffffffffffff167ffadc481b6ee3279e354c7dd564f81963631d426826fcd348f3ae8b711447030260405160405180910390a3505050565b61102161101a6119b0565b8383611ef8565b5050565b6110366110306119b0565b83611a71565b611075576040517f08c379a000000000000000000000000000000000000000000000000000000000815260040161106c90612f5d565b60405180910390fd5b61108184848484612064565b50505050565b600080600760008473ffffffffffffffffffffffffffffffffffffffff1673ffffffffffffffffffffffffffffffffffffffff1681526020019081526020016000205490506000602060ff160361110a576040517fa26c5a3300000000000000000000000000000000000000000000000000000000815260040160405180910390fd5b600760008473ffffffffffffffffffffffffffffffffffffffff1673ffffffffffffffffffffffffffffffffffffffff16815260200190815260200160002054915050919050565b606061115d82611965565b60006111676120c0565b9050600081511161118757604051806020016040528060008152506111b2565b80611191846120d7565b6040516020016111a29291906131d1565b6040516020818303038152906040525b915050919050565b6111c2611d6c565b6000600860008373ffffffffffffffffffffffffffffffffffffffff1673ffffffffffffffffffffffffffffffffffffffff16815260200190815260200160002060020160069054906101000a900473ffffffffffffffffffffffffffffffffffffffff1690506000600860008473ffffffffffffffffffffffffffffffffffffffff1673ffffffffffffffffffffffffffffffffffffffff168152602001908152602001600020600201601a9054906101000a900460ff16905061128682611dea565b6112bc576040517f0c656b6e00000000000000000000000000000000000000000000000000000000815260040160405180910390fd5b60011515811515036112fa576040517f051db2f500000000000000000000000000000000000000000000000000000000815260040160405180910390fd5b6001600860008573ffffffffffffffffffffffffffffffffffffffff1673ffffffffffffffffffffffffffffffffffffffff168152602001908152602001600020600201601a6101000a81548160ff021916908315150217905550505050565b611362611d6c565b6000600860008373ffffffffffffffffffffffffffffffffffffffff1673ffffffffffffffffffffffffffffffffffffffff16815260200190815260200160002060020160069054906101000a900473ffffffffffffffffffffffffffffffffffffffff1690506000600860008473ffffffffffffffffffffffffffffffffffffffff1673ffffffffffffffffffffffffffffffffffffffff168152602001908152602001600020600201601a9054906101000a900460ff16905061142682611dea565b61145c576040517f0c656b6e00000000000000000000000000000000000000000000000000000000815260040160405180910390fd5b600015158115150361149a576040517f7d747b1d00000000000000000000000000000000000000000000000000000000815260040160405180910390fd5b6000600860008573ffffffffffffffffffffffffffffffffffffffff1673ffffffffffffffffffffffffffffffffffffffff168152602001908152602001600020600201601a6101000a81548160ff021916908315150217905550505050565b6000600560008473ffffffffffffffffffffffffffffffffffffffff1673ffffffffffffffffffffffffffffffffffffffff16815260200190815260200160002060008373ffffffffffffffffffffffffffffffffffffffff1673ffffffffffffffffffffffffffffffffffffffff16815260200190815260200160002060009054906101000a900460ff16905092915050565b611596611d6c565b600073ffffffffffffffffffffffffffffffffffffffff168173ffffffffffffffffffffffffffffffffffffffff1603611605576040517f08c379a00000000000000000000000000000000000000000000000000000000081526004016115fc90613267565b60405180910390fd5b61160e81611e32565b50565b6060600060076000600860008873ffffffffffffffffffffffffffffffffffffffff1673ffffffffffffffffffffffffffffffffffffffff16815260200190815260200160002060020160069054906101000a900473ffffffffffffffffffffffffffffffffffffffff1673ffffffffffffffffffffffffffffffffffffffff1673ffffffffffffffffffffffffffffffffffffffff1681526020019081526020016000205490506000600860008773ffffffffffffffffffffffffffffffffffffffff1673ffffffffffffffffffffffffffffffffffffffff168152602001908152602001600020600201601a9054906101000a900460ff1690506000600860008873ffffffffffffffffffffffffffffffffffffffff1673ffffffffffffffffffffffffffffffffffffffff16815260200190815260200160002060020160069054906101000a900473ffffffffffffffffffffffffffffffffffffffff16905061177d81611dea565b6117b3576040517f0c656b6e00000000000000000000000000000000000000000000000000000000815260040160405180910390fd5b816117ea576040517f7d747b1d00000000000000000000000000000000000000000000000000000000815260040160405180910390fd5b858303611823576040517f1eaf1b5b00000000000000000000000000000000000000000000000000000000815260040160405180910390fd5b84600860008973ffffffffffffffffffffffffffffffffffffffff1673ffffffffffffffffffffffffffffffffffffffff16815260200190815260200160002060020160009054906101000a900465ffffffffffff1665ffffffffffff1610156118b9576040517fb873d38600000000000000000000000000000000000000000000000000000000815260040160405180910390fd5b6040518060400160405280600681526020017f414354495645000000000000000000000000000000000000000000000000000081525093505050509392505050565b60007f01ffc9a7000000000000000000000000000000000000000000000000000000007bffffffffffffffffffffffffffffffffffffffffffffffffffffffff1916827bffffffffffffffffffffffffffffffffffffffffffffffffffffffff1916149050919050565b61196e81612237565b6119ad576040517f08c379a00000000000000000000000000000000000000000000000000000000081526004016119a490612fc9565b60405180910390fd5b50565b600033905090565b816004600083815260200190815260200160002060006101000a81548173ffffffffffffffffffffffffffffffffffffffff021916908373ffffffffffffffffffffffffffffffffffffffff160217905550808273ffffffffffffffffffffffffffffffffffffffff16611a2b83610a30565b73ffffffffffffffffffffffffffffffffffffffff167f8c5be1e5ebec7d5bd14f71427d1e84f3dd0314c0f7b2291e5b200ac8c7c3b92560405160405180910390a45050565b600080611a7d83610a30565b90508073ffffffffffffffffffffffffffffffffffffffff168473ffffffffffffffffffffffffffffffffffffffff161480611abf5750611abe81856114fa565b5b80611afd57508373ffffffffffffffffffffffffffffffffffffffff16611ae584610619565b73ffffffffffffffffffffffffffffffffffffffff16145b91505092915050565b8273ffffffffffffffffffffffffffffffffffffffff16611b2682610a30565b73ffffffffffffffffffffffffffffffffffffffff1614611b7c576040517f08c379a0000000000000000000000000000000000000000000000000000000008152600401611b73906132f9565b60405180910390fd5b600073ffffffffffffffffffffffffffffffffffffffff168273ffffffffffffffffffffffffffffffffffffffff1603611beb576040517f08c379a0000000000000000000000000000000000000000000000000000000008152600401611be29061338b565b60405180910390fd5b611bf68383836122a3565b611c016000826119b8565b6001600360008573ffffffffffffffffffffffffffffffffffffffff1673ffffffffffffffffffffffffffffffffffffffff1681526020019081526020016000206000828254611c5191906133da565b925050819055506001600360008473ffffffffffffffffffffffffffffffffffffffff1673ffffffffffffffffffffffffffffffffffffffff1681526020019081526020016000206000828254611ca8919061340e565b92505081905550816002600083815260200190815260200160002060006101000a81548173ffffffffffffffffffffffffffffffffffffffff021916908373ffffffffffffffffffffffffffffffffffffffff160217905550808273ffffffffffffffffffffffffffffffffffffffff168473ffffffffffffffffffffffffffffffffffffffff167fddf252ad1be2c89b69c2b068fc378daa952ba7f163c4a11628f55a4df523b3ef60405160405180910390a4611d678383836122a8565b505050565b611d746119b0565b73ffffffffffffffffffffffffffffffffffffffff16611d92610d5d565b73ffffffffffffffffffffffffffffffffffffffff1614611de8576040517f08c379a0000000000000000000000000000000000000000000000000000000008152600401611ddf9061348e565b60405180910390fd5b565b60008073ffffffffffffffffffffffffffffffffffffffff168273ffffffffffffffffffffffffffffffffffffffff1603611e285760009050611e2d565b600190505b919050565b6000600660009054906101000a900473ffffffffffffffffffffffffffffffffffffffff16905081600660006101000a81548173ffffffffffffffffffffffffffffffffffffffff021916908373ffffffffffffffffffffffffffffffffffffffff1602179055508173ffffffffffffffffffffffffffffffffffffffff168173ffffffffffffffffffffffffffffffffffffffff167f8be0079c531659141344cd1fd0a4f28419497f9722a3daafe3b4186f6b6457e060405160405180910390a35050565b8173ffffffffffffffffffffffffffffffffffffffff168373ffffffffffffffffffffffffffffffffffffffff1603611f66576040517f08c379a0000000000000000000000000000000000000000000000000000000008152600401611f5d906134fa565b60405180910390fd5b80600560008573ffffffffffffffffffffffffffffffffffffffff1673ffffffffffffffffffffffffffffffffffffffff16815260200190815260200160002060008473ffffffffffffffffffffffffffffffffffffffff1673ffffffffffffffffffffffffffffffffffffffff16815260200190815260200160002060006101000a81548160ff0219169083151502179055508173ffffffffffffffffffffffffffffffffffffffff168373ffffffffffffffffffffffffffffffffffffffff167f17307eab39ab6107e8899845ad3d59bd9653f200f220920489ca2b5937696c31836040516120579190612560565b60405180910390a3505050565b61206f848484611b06565b61207b848484846122ad565b6120ba576040517f08c379a00000000000000000000000000000000000000000000000000000000081526004016120b19061358c565b60405180910390fd5b50505050565b606060405180602001604052806000815250905090565b60606000820361211e576040518060400160405280600181526020017f30000000000000000000000000000000000000000000000000000000000000008152509050612232565b600082905060005b60008214612150578080612139906135ac565b915050600a826121499190613623565b9150612126565b60008167ffffffffffffffff81111561216c5761216b6129ba565b5b6040519080825280601f01601f19166020018201604052801561219e5781602001600182028036833780820191505090505b5090505b6000851461222b576001826121b791906133da565b9150600a856121c69190613654565b60306121d2919061340e565b60f81b8183815181106121e8576121e7613685565b5b60200101907effffffffffffffffffffffffffffffffffffffffffffffffffffffffffffff1916908160001a905350600a856122249190613623565b94506121a2565b8093505050505b919050565b60008073ffffffffffffffffffffffffffffffffffffffff166002600084815260200190815260200160002060009054906101000a900473ffffffffffffffffffffffffffffffffffffffff1673ffffffffffffffffffffffffffffffffffffffff1614159050919050565b505050565b505050565b60006122ce8473ffffffffffffffffffffffffffffffffffffffff16612434565b15612427578373ffffffffffffffffffffffffffffffffffffffff1663150b7a026122f76119b0565b8786866040518563ffffffff1660e01b81526004016123199493929190613709565b6020604051808303816000875af192505050801561235557506040513d601f19601f82011682018060405250810190612352919061376a565b60015b6123d7573d8060008114612385576040519150601f19603f3d011682016040523d82523d6000602084013e61238a565b606091505b5060008151036123cf576040517f08c379a00000000000000000000000000000000000000000000000000000000081526004016123c69061358c565b60405180910390fd5b805181602001fd5b63150b7a0260e01b7bffffffffffffffffffffffffffffffffffffffffffffffffffffffff1916817bffffffffffffffffffffffffffffffffffffffffffffffffffffffff19161491505061242c565b600190505b949350505050565b6000808273ffffffffffffffffffffffffffffffffffffffff163b119050919050565b6040518060a001604052806000801916815260200160008019168152602001600065ffffffffffff168152602001600073ffffffffffffffffffffffffffffffffffffffff1681526020016000151581525090565b6000604051905090565b600080fd5b600080fd5b60007fffffffff0000000000000000000000000000000000000000000000000000000082169050919050565b6124f5816124c0565b811461250057600080fd5b50565b600081359050612512816124ec565b92915050565b60006020828403121561252e5761252d6124b6565b5b600061253c84828501612503565b91505092915050565b60008115159050919050565b61255a81612545565b82525050565b60006020820190506125756000830184612551565b92915050565b600081519050919050565b600082825260208201905092915050565b60005b838110156125b557808201518184015260208101905061259a565b60008484015250505050565b6000601f19601f8301169050919050565b60006125dd8261257b565b6125e78185612586565b93506125f7818560208601612597565b612600816125c1565b840191505092915050565b6000602082019050818103600083015261262581846125d2565b905092915050565b6000819050919050565b6126408161262d565b811461264b57600080fd5b50565b60008135905061265d81612637565b92915050565b600060208284031215612679576126786124b6565b5b60006126878482850161264e565b91505092915050565b600073ffffffffffffffffffffffffffffffffffffffff82169050919050565b60006126bb82612690565b9050919050565b6126cb816126b0565b82525050565b60006020820190506126e660008301846126c2565b92915050565b6126f5816126b0565b811461270057600080fd5b50565b600081359050612712816126ec565b92915050565b6000806040838503121561272f5761272e6124b6565b5b600061273d85828601612703565b925050602061274e8582860161264e565b9150509250929050565b600080600060608486031215612771576127706124b6565b5b600061277f86828701612703565b935050602061279086828701612703565b92505060406127a18682870161264e565b9150509250925092565b6000819050919050565b6127be816127ab565b81146127c957600080fd5b50565b6000813590506127db816127b5565b92915050565b600080604083850312156127f8576127f76124b6565b5b600061280685828601612703565b9250506020612817858286016127cc565b9150509250929050565b600065ffffffffffff82169050919050565b61283c81612821565b811461284757600080fd5b50565b60008135905061285981612833565b92915050565b60008060408385031215612876576128756124b6565b5b600061288485828601612703565b92505060206128958582860161284a565b9150509250929050565b6000602082840312156128b5576128b46124b6565b5b60006128c384828501612703565b91505092915050565b6128d58161262d565b82525050565b60006020820190506128f060008301846128cc565b92915050565b6128ff816127ab565b82525050565b61290e81612821565b82525050565b61291d816126b0565b82525050565b61292c81612545565b82525050565b60a08201600082015161294860008501826128f6565b50602082015161295b60208501826128f6565b50604082015161296e6040850182612905565b5060608201516129816060850182612914565b5060808201516129946080850182612923565b50505050565b600060a0820190506129af6000830184612932565b92915050565b600080fd5b7f4e487b7100000000000000000000000000000000000000000000000000000000600052604160045260246000fd5b6129f2826125c1565b810181811067ffffffffffffffff82111715612a1157612a106129ba565b5b80604052505050565b6000612a246124ac565b9050612a3082826129e9565b919050565b612a3e81612545565b8114612a4957600080fd5b50565b600081359050612a5b81612a35565b92915050565b600060a08284031215612a7757612a766129b5565b5b612a8160a0612a1a565b90506000612a91848285016127cc565b6000830152506020612aa5848285016127cc565b6020830152506040612ab98482850161284a565b6040830152506060612acd84828501612703565b6060830152506080612ae184828501612a4c565b60808301525092915050565b60008060c08385031215612b0457612b036124b6565b5b6000612b1285828601612703565b9250506020612b2385828601612a61565b9150509250929050565b60008060408385031215612b4457612b436124b6565b5b6000612b5285828601612703565b9250506020612b6385828601612a4c565b9150509250929050565b600080fd5b600080fd5b600067ffffffffffffffff821115612b9257612b916129ba565b5b612b9b826125c1565b9050602081019050919050565b82818337600083830152505050565b6000612bca612bc584612b77565b612a1a565b905082815260208101848484011115612be657612be5612b72565b5b612bf1848285612ba8565b509392505050565b600082601f830112612c0e57612c0d612b6d565b5b8135612c1e848260208601612bb7565b91505092915050565b60008060008060808587031215612c4157612c406124b6565b5b6000612c4f87828801612703565b9450506020612c6087828801612703565b9350506040612c718782880161264e565b925050606085013567ffffffffffffffff811115612c9257612c916124bb565b5b612c9e87828801612bf9565b91505092959194509250565b612cb3816127ab565b82525050565b6000602082019050612cce6000830184612caa565b92915050565b60008060408385031215612ceb57612cea6124b6565b5b6000612cf985828601612703565b9250506020612d0a85828601612703565b9150509250929050565b600080600060608486031215612d2d57612d2c6124b6565b5b6000612d3b86828701612703565b9350506020612d4c868287016127cc565b9250506040612d5d8682870161264e565b9150509250925092565b7f4e487b7100000000000000000000000000000000000000000000000000000000600052602260045260246000fd5b60006002820490506001821680612dae57607f821691505b602082108103612dc157612dc0612d67565b5b50919050565b7f4552433732313a20617070726f76616c20746f2063757272656e74206f776e6560008201527f7200000000000000000000000000000000000000000000000000000000000000602082015250565b6000612e23602183612586565b9150612e2e82612dc7565b604082019050919050565b60006020820190508181036000830152612e5281612e16565b9050919050565b7f4552433732313a20617070726f76652063616c6c6572206973206e6f7420746f60008201527f6b656e206f776e6572206e6f7220617070726f76656420666f7220616c6c0000602082015250565b6000612eb5603e83612586565b9150612ec082612e59565b604082019050919050565b60006020820190508181036000830152612ee481612ea8565b9050919050565b7f4552433732313a2063616c6c6572206973206e6f7420746f6b656e206f776e6560008201527f72206e6f7220617070726f766564000000000000000000000000000000000000602082015250565b6000612f47602e83612586565b9150612f5282612eeb565b604082019050919050565b60006020820190508181036000830152612f7681612f3a565b9050919050565b7f4552433732313a20696e76616c696420746f6b656e2049440000000000000000600082015250565b6000612fb3601883612586565b9150612fbe82612f7d565b602082019050919050565b60006020820190508181036000830152612fe281612fa6565b9050919050565b7f4552433732313a2061646472657373207a65726f206973206e6f74206120766160008201527f6c6964206f776e65720000000000000000000000000000000000000000000000602082015250565b6000613045602983612586565b915061305082612fe9565b604082019050919050565b6000602082019050818103600083015261307481613038565b9050919050565b613084816127ab565b82525050565b6000613096838361307b565b60208301905092915050565b6130ab81612821565b82525050565b60006130bd83836130a2565b60208301905092915050565b6130d2816126b0565b82525050565b60006130e483836130c9565b60208301905092915050565b6130f981612545565b82525050565b600061310b83836130f0565b60208301905092915050565b60008201600082015161312a848261308a565b935050602082015161313c848261308a565b935050604082015161314e84826130b1565b935050606082015161316084826130d8565b935050608082015161317284826130ff565b935050505050565b60006131868284613117565b60a08201915081905092915050565b600081905092915050565b60006131ab8261257b565b6131b58185613195565b93506131c5818560208601612597565b80840191505092915050565b60006131dd82856131a0565b91506131e982846131a0565b91508190509392505050565b7f4f776e61626c653a206e6577206f776e657220697320746865207a65726f206160008201527f6464726573730000000000000000000000000000000000000000000000000000602082015250565b6000613251602683612586565b915061325c826131f5565b604082019050919050565b6000602082019050818103600083015261328081613244565b9050919050565b7f4552433732313a207472616e736665722066726f6d20696e636f72726563742060008201527f6f776e6572000000000000000000000000000000000000000000000000000000602082015250565b60006132e3602583612586565b91506132ee82613287565b604082019050919050565b60006020820190508181036000830152613312816132d6565b9050919050565b7f4552433732313a207472616e7366657220746f20746865207a65726f2061646460008201527f7265737300000000000000000000000000000000000000000000000000000000602082015250565b6000613375602483612586565b915061338082613319565b604082019050919050565b600060208201905081810360008301526133a481613368565b9050919050565b7f4e487b7100000000000000000000000000000000000000000000000000000000600052601160045260246000fd5b60006133e58261262d565b91506133f08361262d565b9250828203905081811115613408576134076133ab565b5b92915050565b60006134198261262d565b91506134248361262d565b925082820190508082111561343c5761343b6133ab565b5b92915050565b7f4f776e61626c653a2063616c6c6572206973206e6f7420746865206f776e6572600082015250565b6000613478602083612586565b915061348382613442565b602082019050919050565b600060208201905081810360008301526134a78161346b565b9050919050565b7f4552433732313a20617070726f766520746f2063616c6c657200000000000000600082015250565b60006134e4601983612586565b91506134ef826134ae565b602082019050919050565b60006020820190508181036000830152613513816134d7565b9050919050565b7f4552433732313a207472616e7366657220746f206e6f6e20455243373231526560008201527f63656976657220696d706c656d656e7465720000000000000000000000000000602082015250565b6000613576603283612586565b91506135818261351a565b604082019050919050565b600060208201905081810360008301526135a581613569565b9050919050565b60006135b78261262d565b91507fffffffffffffffffffffffffffffffffffffffffffffffffffffffffffffffff82036135e9576135e86133ab565b5b600182019050919050565b7f4e487b7100000000000000000000000000000000000000000000000000000000600052601260045260246000fd5b600061362e8261262d565b91506136398361262d565b925082613649576136486135f4565b5b828204905092915050565b600061365f8261262d565b915061366a8361262d565b92508261367a576136796135f4565b5b828206905092915050565b7f4e487b7100000000000000000000000000000000000000000000000000000000600052603260045260246000fd5b600081519050919050565b600082825260208201905092915050565b60006136db826136b4565b6136e581856136bf565b93506136f5818560208601612597565b6136fe816125c1565b840191505092915050565b600060808201905061371e60008301876126c2565b61372b60208301866126c2565b61373860408301856128cc565b818103606083015261374a81846136d0565b905095945050505050565b600081519050613764816124ec565b92915050565b6000602082840312156137805761377f6124b6565b5b600061378e84828501613755565b9150509291505056fea264697066735822122089f3c76b59f685f084cc1ee1bb90d4ea26d824161aa9a103de0781c178e4800464736f6c63430008110033",
  "immutableReferences": {},
  "source": "// SPDX-License-Identifier: UNLICENSED\r\npragma solidity >=0.7.0 <0.9.0;\r\n\r\nimport \"../node_modules/@openzeppelin/contracts/token/ERC721/ERC721.sol\";\r\nimport \"../node_modules/@openzeppelin/contracts/access/Ownable.sol\";\r\n\r\nerror ContractAlreadyHaveBrandName();\r\nerror ContractDoesntHaveBrandName();\r\nerror ContractNoExist();\r\nerror ContractAlreadyCreate();\r\nerror ContractAlreadyInactive();\r\nerror ContractAlreadyActive();\r\nerror CompanyNotOfficialStore();\r\nerror CompanyInactive();\r\n\r\ncontract OfficialStore is ERC721, Ownable {\r\n    /*\r\n     * ContractBrand is structure of brand and contract definition.\r\n     * `name` will represent name of toko that assign as principle from Brand\r\n     * `mainBrandAddress` will represent contract brand address\r\n     * `district` will represent location of brand distribution\r\n     * `expiredDate` will represent unit timestamp the brand will active\r\n     * `active` will represent activation brand as principle official store\r\n     */\r\n    struct ContractBrand {\r\n        bytes32 name;\r\n        bytes32 district;\r\n        uint48 expiredDate;\r\n        address mainBrandAddress;\r\n        bool active;\r\n    }\r\n    /*\r\n     * _mainAddressBrand represent wallet address of brand assign\r\n     * using bytes32 rather than string is more gass efisien\r\n     * and make sure the data is under 32 characters\r\n     */\r\n    mapping(address => bytes32) private _mainAddressBrand;\r\n\r\n    // _contractBrandList represent list contract brand from the partners\r\n    mapping(address => ContractBrand) private _contractBrandList;\r\n\r\n    event BrandAddress(address indexed _from, bytes32 _value);\r\n\r\n    event BrandContract(address indexed _from, ContractBrand indexed _contractBrand);\r\n\r\n    constructor() ERC721(\"OfficialStore\", \"OST\") {}\r\n\r\n    /*\r\n     * setBrandContract will set an address as official store brand name\r\n     * mainBrandAddress is destination the address assign as brand\r\n     * brandName will represent brand name\r\n     */\r\n    function setBrandContract(address mainBrandAddress, bytes32 brandName)\r\n        external\r\n        onlyOwner\r\n    {\r\n        bytes32 _brandName = _mainAddressBrand[mainBrandAddress];\r\n        if (_brandName.length > 0) {\r\n            revert ContractAlreadyHaveBrandName();\r\n        }\r\n        _mainAddressBrand[mainBrandAddress] = brandName;\r\n        emit BrandAddress(mainBrandAddress, brandName);\r\n    }\r\n\r\n    /*\r\n     * setContractOS will set an address as principle official store brand\r\n     * contractAddress is destination the address assign as official store\r\n     * contractBrandInfo will keep information of brand info\r\n     */\r\n    function setContractOS(\r\n        address contractAddress,\r\n        ContractBrand memory contractBrandInfo\r\n    ) external onlyOwner {\r\n        address _contractBrand = _contractBrandList[contractAddress].mainBrandAddress;\r\n        if (_contractBrandExist(_contractBrand)) {\r\n            revert ContractAlreadyCreate();\r\n        }\r\n        _contractBrandList[contractAddress] = contractBrandInfo;\r\n        emit BrandContract(contractAddress, contractBrandInfo);\r\n    }\r\n\r\n    /*\r\n     * enableContractOS will set active existing address to activate the brand official store\r\n     * contractAddress is destination the address assign enable as the official store\r\n     */\r\n    function enableContractOS(address contractAddress) external onlyOwner {\r\n        address _contractBrand = _contractBrandList[contractAddress].mainBrandAddress;\r\n        bool brandStatus = _contractBrandList[contractAddress].active;\r\n        if (!_contractBrandExist(_contractBrand)) {\r\n            revert ContractNoExist();\r\n        }\r\n        if (brandStatus == true) {\r\n            revert ContractAlreadyActive();\r\n        }\r\n        _contractBrandList[contractAddress].active = true;\r\n    }\r\n\r\n    /*\r\n     * disableContractOS will set inactive existing address to activate the brand official store\r\n     * contractAddress is destination the address to disable as the official store\r\n     */\r\n    function disableContractOS(address contractAddress) external onlyOwner {\r\n        address _contractBrand = _contractBrandList[contractAddress].mainBrandAddress;\r\n        bool brandStatus = _contractBrandList[contractAddress].active;\r\n        if (!_contractBrandExist(_contractBrand)) {\r\n            revert ContractNoExist();\r\n        }\r\n        if (brandStatus == false) {\r\n            revert ContractAlreadyInactive();\r\n        }\r\n        _contractBrandList[contractAddress].active = false;\r\n    }\r\n\r\n    /*\r\n     * extendContractOS will extend the contract as official store\r\n     * contractAddress is destination the address assign to extend\r\n     * ts is unix timestamp extend the contract address\r\n     */\r\n    function extendContractOS(address contractAddress, uint48 ts)\r\n        external\r\n        onlyOwner\r\n    {\r\n        address _contractBrand = _contractBrandList[contractAddress].mainBrandAddress;\r\n        if (!_contractBrandExist(_contractBrand)) {\r\n            revert ContractNoExist();\r\n        }\r\n        _contractBrandList[contractAddress].expiredDate = ts;\r\n    }\r\n\r\n    /*\r\n     * getBrandFromAddress will show information brand\r\n     * will return brand name information\r\n     */\r\n    function getBrandFromAddress(address brandAddress)\r\n        public\r\n        view\r\n        returns (bytes32 brandName)\r\n    {\r\n        bytes32 _brandName = _mainAddressBrand[brandAddress];\r\n        if (_brandName.length == 0) {\r\n            revert ContractDoesntHaveBrandName();\r\n        }\r\n        return _mainAddressBrand[brandAddress];\r\n    }\r\n\r\n    /*\r\n     * getContractBrandFromAddress will show information contract brand and principle\r\n     */\r\n    function getContractBrandFromAddress(address contractAddress)\r\n        public\r\n        view\r\n        returns (ContractBrand memory)\r\n    {\r\n        address _contractBrand = _contractBrandList[contractAddress].mainBrandAddress;\r\n        if (!_contractBrandExist(_contractBrand)) {\r\n            revert ContractNoExist();\r\n        }\r\n        return _contractBrandList[contractAddress];\r\n    }\r\n\r\n    /*\r\n     * isContractBrandActive will check contract address still active or not as official store.\r\n     * contractAddress will represent the contract address of principle official store.\r\n     * brandName will contain check what brand assign to the contract.\r\n     * unixTimeNow will contain availability of time that assign.\r\n     */\r\n    function isContractBrandActive(\r\n        address contractAddress,\r\n        bytes32 brandName,\r\n        uint256 unixTimeNow\r\n    ) public view returns (string memory active) {\r\n        bytes32 _mainBrandAddress = _mainAddressBrand[_contractBrandList[contractAddress].mainBrandAddress];\r\n        bool _active = _contractBrandList[contractAddress].active;\r\n        address _contractBrand = _contractBrandList[contractAddress].mainBrandAddress;\r\n\r\n        if (!_contractBrandExist(_contractBrand)) {\r\n            revert ContractNoExist();\r\n        }\r\n        if (!_active) {\r\n            revert ContractAlreadyInactive();\r\n        }\r\n\r\n        if (_mainBrandAddress == brandName) {\r\n            revert CompanyNotOfficialStore();\r\n        }\r\n\r\n        if (_contractBrandList[contractAddress].expiredDate < unixTimeNow) {\r\n            revert CompanyInactive();\r\n        }\r\n\r\n        return \"ACTIVE\";\r\n    }\r\n\r\n    // compareStrings from the brand\r\n    // function compareStrings(string memory a, string memory b)\r\n    //     public\r\n    //     pure\r\n    //     returns (bool)\r\n    // {\r\n    //     return keccak256(abi.encodePacked(a)) == keccak256(abi.encodePacked(b));\r\n    // }\r\n\r\n    function _contractBrandExist(address _contractAddressBrand)\r\n        private\r\n        pure\r\n        returns (bool)\r\n    {\r\n        if (_contractAddressBrand == address(0)) {\r\n            return false;\r\n        }\r\n        return true;\r\n    }\r\n}\r\n",
  "sourcePath": "C:\\Users\\Angga Danar\\Documents\\Freelance\\sc-official-store\\contracts\\OfficialStore.sol",
  "compiler": {
    "name": "solc",
    "version": "0.8.17+commit.8df45f5f.Emscripten.clang"
  },
  "schemaVersion": "3.4.11",
  "updatedAt": "2023-01-16T08:49:23.139Z",
  "devdoc": {
    "kind": "dev",
    "methods": {
      "approve(address,uint256)": {
        "details": "See {IERC721-approve}."
      },
      "balanceOf(address)": {
        "details": "See {IERC721-balanceOf}."
      },
      "getApproved(uint256)": {
        "details": "See {IERC721-getApproved}."
      },
      "isApprovedForAll(address,address)": {
        "details": "See {IERC721-isApprovedForAll}."
      },
      "name()": {
        "details": "See {IERC721Metadata-name}."
      },
      "owner()": {
        "details": "Returns the address of the current owner."
      },
      "ownerOf(uint256)": {
        "details": "See {IERC721-ownerOf}."
      },
      "renounceOwnership()": {
        "details": "Leaves the contract without owner. It will not be possible to call `onlyOwner` functions anymore. Can only be called by the current owner. NOTE: Renouncing ownership will leave the contract without an owner, thereby removing any functionality that is only available to the owner."
      },
      "safeTransferFrom(address,address,uint256)": {
        "details": "See {IERC721-safeTransferFrom}."
      },
      "safeTransferFrom(address,address,uint256,bytes)": {
        "details": "See {IERC721-safeTransferFrom}."
      },
      "setApprovalForAll(address,bool)": {
        "details": "See {IERC721-setApprovalForAll}."
      },
      "supportsInterface(bytes4)": {
        "details": "See {IERC165-supportsInterface}."
      },
      "symbol()": {
        "details": "See {IERC721Metadata-symbol}."
      },
      "tokenURI(uint256)": {
        "details": "See {IERC721Metadata-tokenURI}."
      },
      "transferFrom(address,address,uint256)": {
        "details": "See {IERC721-transferFrom}."
      },
      "transferOwnership(address)": {
        "details": "Transfers ownership of the contract to a new account (`newOwner`). Can only be called by the current owner."
      }
    },
    "version": 1
  },
  "userdoc": {
    "kind": "user",
    "methods": {},
    "version": 1
  }
}